:060000000A128A1110280B
:10000800FE00030E83120313A3000408A4000A08C9
:10001800A5000A128A1132280A128A11132883139A
:100028005330FD000230FE009830FF003E3084005F
:100038000A128A11B1220A128A11D301D401D501F8
:10004800D601D701D801D901DA01F901FA01FB017A
:10005800FC01FD0183010A128A1190290C1F352821
:100068003628EA281F0CA000200C0F39003A031D7F
:100078003E283F2842281E088600E9281F0CA000B9
:10008800200C0F39013A031D4A284B28E9281E087D
:10009800A0002008FA006430F0000030F1007A086F
:1000A800A000A1012008F2002108F3000A128A1119
:1000B80029210A128A11700883120313A200220848
:1000C800D8006430F0000030F1007A08A000A101E7
:1000D8002008F2002108F3000A128A11F4210A12FA
:1000E8008A11700883120313A2002208F9000A304B
:1000F800F0000030F1007908F200F301F21BF3037D
:100108000A128A1129210A128A117008831203130C
:10011800A0002008D9000A30F0000030F10079086A
:10012800F200F301F21BF3030A128A11F4210A12F6
:100138008A11700883120313A0002008DA00D60180
:10014800D7015A08A0002007A1002108FD007D085A
:10015800803A763E031CB128B228B9287D08F63EBD
:10016800A0002008FD00D701D70A5908A0002007E1
:10017800A1002108FC0057087C07A0002008FC000B
:100188007C08803A763E031CCA28CB28D2287C08F3
:10019800F63EA0002008FC00D601D60A5808A000A8
:1001A8002007A1002108FB0056087B07A0002008B3
:1001B800FB00FB307A02031CE228E328E928FD0152
:1001C800FC010530A0002008FB000C130B1DED28D6
:1001D800EE282029082901308800530887000230BA
:1001E800A0002008D2001D2902308800540887008A
:1001F8000330A0002008D2001D29043088005508CB
:100208008700D201D20A1D295208A000A101A01B13
:10021800A1032108003A031912291D292008013ACF
:100228000319EF28033A0319F828013A0319012999
:100238001D290B11F830810025088A002408840044
:10024800230E8300FE0E7E0E0900F601F11F2D29F4
:100258002E293529F009F109F00A0319F10AF601E6
:10026800F60AF31F382939294229F209F309F20A53
:100278000319F30A0130F4007408F606F701F801CF
:1002880070087104031949294A298129F501F50AD9
:10029800582901300310F00DF10DFF3E031D4E29C2
:1002A8000130F4007408F507F11F5B295C294D291A
:1002B80001300310F70DF80DFF3E031D5D2971088D
:1002C8007302031D692970087202031C6C296D29C9
:1002D80074297008F2027108031CF303F3027714FF
:1002E80001300310F10CF00CFF3E031D752901309D
:1002F800F502031D802981295C29760803198529BF
:1003080086298B29F709F809F70A0319F80A7808E2
:10031800F1007708F00008000A128A114D220A122B
:100328008A112A3084003E3083120313A600040881
:10033800A7001430A8002608840083130008A90029
:10034800A60A2708840029088000A70AA80B9F2965
:1003580087179F18B029B129D4291F0CA600260C8D
:100368000F39003A031DB929BA29BF291F08C33913
:1003780004389F00CA291F0CA600260C0F39013A21
:10038800031DC729C829CA29C3309F050C30831209
:100398000313A600A60BCE290000831203139F1493
:1003A8007D08A60026072A3E840083130008A700BC
:1003B8002708D5007C08A60026072A3E84000008E6
:1003C800A7002708D4007B08A60026072A3E840039
:1003D8000008A7002708D300AC290A128A111028A0
:1003E800F601F31FF829F929002AF209F309F20A9C
:1003F8000319F30AF601F60AF11F032A042A092A47
:10040800F009F109F00A0319F10A700871040319D7
:100418000E2A0F2A3E2AF501F50A1D2A013003107B
:10042800F00DF10DFF3E031D132A0130F40074088E
:10043800F507F11F202A212A122A71087302031DC9
:10044800272A70087202031C2A2A2B2A312A7008CC
:10045800F2027108031CF303F30201300310F10CDC
:10046800F00CFF3E031D322A0130F502031D3D2A20
:100478003E2A212A76080319422A432A482AF209E1
:10048800F309F20A0319F30A7308F1007208F0007D
:100498000800033083160317880089010330831688
:1004A8000313850083120313850183160313870141
:1004B800831203138701831603138801831203131E
:1004C800880183160313860183120313860183169A
:1004D80003130F088F3960388F000F14831203132A
:1004E8001F083F3940389F00831603131F129F12BD
:1004F800C330831203139F05831603139F138312BC
:1005080003131F140C13831603130C170B178B17E5
:100518008B1681128111011481140115F830831290
:10052800031381000B1108003F34003406340034F3
:100538005B3400344F340034663400346D34003496
:100548007D340034073400347F3400346F34003491
:1005580001347E088A007F0882000A128A11AD22BF
:100568000A128A118000840A04087D0603190034DF
:08057800FF0A0319FE0AB12A73
:08400000FF3FFF3FFF3FFF3FC0
:04400E00D420FF3F7C
:00000001FF
